{
  "_format": "hh-sol-artifact-1",
  "contractName": "BondContract",
  "sourceName": "contracts/BondContract.sol",
  "abi": [
    {
      "inputs": [
        {
          "internalType": "address",
          "name": "initialOwner",
          "type": "address"
        }
      ],
      "stateMutability": "nonpayable",
      "type": "constructor"
    },
    {
      "inputs": [
        {
          "internalType": "address",
          "name": "sender",
          "type": "address"
        },
        {
          "internalType": "uint256",
          "name": "tokenId",
          "type": "uint256"
        },
        {
          "internalType": "address",
          "name": "owner",
          "type": "address"
        }
      ],
      "name": "ERC721IncorrectOwner",
      "type": "error"
    },
    {
      "inputs": [
        {
          "internalType": "address",
          "name": "operator",
          "type": "address"
        },
        {
          "internalType": "uint256",
          "name": "tokenId",
          "type": "uint256"
        }
      ],
      "name": "ERC721InsufficientApproval",
      "type": "error"
    },
    {
      "inputs": [
        {
          "internalType": "address",
          "name": "approver",
          "type": "address"
        }
      ],
      "name": "ERC721InvalidApprover",
      "type": "error"
    },
    {
      "inputs": [
        {
          "internalType": "address",
          "name": "operator",
          "type": "address"
        }
      ],
      "name": "ERC721InvalidOperator",
      "type": "error"
    },
    {
      "inputs": [
        {
          "internalType": "address",
          "name": "owner",
          "type": "address"
        }
      ],
      "name": "ERC721InvalidOwner",
      "type": "error"
    },
    {
      "inputs": [
        {
          "internalType": "address",
          "name": "receiver",
          "type": "address"
        }
      ],
      "name": "ERC721InvalidReceiver",
      "type": "error"
    },
    {
      "inputs": [
        {
          "internalType": "address",
          "name": "sender",
          "type": "address"
        }
      ],
      "name": "ERC721InvalidSender",
      "type": "error"
    },
    {
      "inputs": [
        {
          "internalType": "uint256",
          "name": "tokenId",
          "type": "uint256"
        }
      ],
      "name": "ERC721NonexistentToken",
      "type": "error"
    },
    {
      "inputs": [
        {
          "internalType": "address",
          "name": "owner",
          "type": "address"
        }
      ],
      "name": "OwnableInvalidOwner",
      "type": "error"
    },
    {
      "inputs": [
        {
          "internalType": "address",
          "name": "account",
          "type": "address"
        }
      ],
      "name": "OwnableUnauthorizedAccount",
      "type": "error"
    },
    {
      "anonymous": false,
      "inputs": [
        {
          "indexed": true,
          "internalType": "address",
          "name": "owner",
          "type": "address"
        },
        {
          "indexed": true,
          "internalType": "address",
          "name": "approved",
          "type": "address"
        },
        {
          "indexed": true,
          "internalType": "uint256",
          "name": "tokenId",
          "type": "uint256"
        }
      ],
      "name": "Approval",
      "type": "event"
    },
    {
      "anonymous": false,
      "inputs": [
        {
          "indexed": true,
          "internalType": "address",
          "name": "owner",
          "type": "address"
        },
        {
          "indexed": true,
          "internalType": "address",
          "name": "operator",
          "type": "address"
        },
        {
          "indexed": false,
          "internalType": "bool",
          "name": "approved",
          "type": "bool"
        }
      ],
      "name": "ApprovalForAll",
      "type": "event"
    },
    {
      "anonymous": false,
      "inputs": [
        {
          "indexed": true,
          "internalType": "address",
          "name": "previousOwner",
          "type": "address"
        },
        {
          "indexed": true,
          "internalType": "address",
          "name": "newOwner",
          "type": "address"
        }
      ],
      "name": "OwnershipTransferred",
      "type": "event"
    },
    {
      "anonymous": false,
      "inputs": [
        {
          "indexed": true,
          "internalType": "address",
          "name": "from",
          "type": "address"
        },
        {
          "indexed": true,
          "internalType": "address",
          "name": "to",
          "type": "address"
        },
        {
          "indexed": true,
          "internalType": "uint256",
          "name": "tokenId",
          "type": "uint256"
        }
      ],
      "name": "Transfer",
      "type": "event"
    },
    {
      "inputs": [
        {
          "internalType": "address",
          "name": "to",
          "type": "address"
        },
        {
          "internalType": "uint256",
          "name": "tokenId",
          "type": "uint256"
        }
      ],
      "name": "approve",
      "outputs": [],
      "stateMutability": "nonpayable",
      "type": "function"
    },
    {
      "inputs": [
        {
          "internalType": "address",
          "name": "owner",
          "type": "address"
        }
      ],
      "name": "balanceOf",
      "outputs": [
        {
          "internalType": "uint256",
          "name": "",
          "type": "uint256"
        }
      ],
      "stateMutability": "view",
      "type": "function"
    },
    {
      "inputs": [
        {
          "internalType": "uint256",
          "name": "tokenId",
          "type": "uint256"
        }
      ],
      "name": "burn",
      "outputs": [],
      "stateMutability": "nonpayable",
      "type": "function"
    },
    {
      "inputs": [
        {
          "internalType": "uint256",
          "name": "tokenId",
          "type": "uint256"
        }
      ],
      "name": "getApproved",
      "outputs": [
        {
          "internalType": "address",
          "name": "",
          "type": "address"
        }
      ],
      "stateMutability": "view",
      "type": "function"
    },
    {
      "inputs": [
        {
          "internalType": "address",
          "name": "owner",
          "type": "address"
        },
        {
          "internalType": "address",
          "name": "operator",
          "type": "address"
        }
      ],
      "name": "isApprovedForAll",
      "outputs": [
        {
          "internalType": "bool",
          "name": "",
          "type": "bool"
        }
      ],
      "stateMutability": "view",
      "type": "function"
    },
    {
      "inputs": [],
      "name": "name",
      "outputs": [
        {
          "internalType": "string",
          "name": "",
          "type": "string"
        }
      ],
      "stateMutability": "view",
      "type": "function"
    },
    {
      "inputs": [],
      "name": "owner",
      "outputs": [
        {
          "internalType": "address",
          "name": "",
          "type": "address"
        }
      ],
      "stateMutability": "view",
      "type": "function"
    },
    {
      "inputs": [
        {
          "internalType": "uint256",
          "name": "tokenId",
          "type": "uint256"
        }
      ],
      "name": "ownerOf",
      "outputs": [
        {
          "internalType": "address",
          "name": "",
          "type": "address"
        }
      ],
      "stateMutability": "view",
      "type": "function"
    },
    {
      "inputs": [],
      "name": "renounceOwnership",
      "outputs": [],
      "stateMutability": "nonpayable",
      "type": "function"
    },
    {
      "inputs": [
        {
          "internalType": "address",
          "name": "to",
          "type": "address"
        },
        {
          "internalType": "uint256",
          "name": "tokenId",
          "type": "uint256"
        }
      ],
      "name": "safeMint",
      "outputs": [],
      "stateMutability": "nonpayable",
      "type": "function"
    },
    {
      "inputs": [
        {
          "internalType": "address",
          "name": "from",
          "type": "address"
        },
        {
          "internalType": "address",
          "name": "to",
          "type": "address"
        },
        {
          "internalType": "uint256",
          "name": "tokenId",
          "type": "uint256"
        }
      ],
      "name": "safeTransferFrom",
      "outputs": [],
      "stateMutability": "nonpayable",
      "type": "function"
    },
    {
      "inputs": [
        {
          "internalType": "address",
          "name": "from",
          "type": "address"
        },
        {
          "internalType": "address",
          "name": "to",
          "type": "address"
        },
        {
          "internalType": "uint256",
          "name": "tokenId",
          "type": "uint256"
        },
        {
          "internalType": "bytes",
          "name": "data",
          "type": "bytes"
        }
      ],
      "name": "safeTransferFrom",
      "outputs": [],
      "stateMutability": "nonpayable",
      "type": "function"
    },
    {
      "inputs": [
        {
          "internalType": "address",
          "name": "operator",
          "type": "address"
        },
        {
          "internalType": "bool",
          "name": "approved",
          "type": "bool"
        }
      ],
      "name": "setApprovalForAll",
      "outputs": [],
      "stateMutability": "nonpayable",
      "type": "function"
    },
    {
      "inputs": [
        {
          "internalType": "bytes4",
          "name": "interfaceId",
          "type": "bytes4"
        }
      ],
      "name": "supportsInterface",
      "outputs": [
        {
          "internalType": "bool",
          "name": "",
          "type": "bool"
        }
      ],
      "stateMutability": "view",
      "type": "function"
    },
    {
      "inputs": [],
      "name": "symbol",
      "outputs": [
        {
          "internalType": "string",
          "name": "",
          "type": "string"
        }
      ],
      "stateMutability": "view",
      "type": "function"
    },
    {
      "inputs": [
        {
          "internalType": "uint256",
          "name": "tokenId",
          "type": "uint256"
        }
      ],
      "name": "tokenURI",
      "outputs": [
        {
          "internalType": "string",
          "name": "",
          "type": "string"
        }
      ],
      "stateMutability": "view",
      "type": "function"
    },
    {
      "inputs": [
        {
          "internalType": "address",
          "name": "from",
          "type": "address"
        },
        {
          "internalType": "address",
          "name": "to",
          "type": "address"
        },
        {
          "internalType": "uint256",
          "name": "tokenId",
          "type": "uint256"
        }
      ],
      "name": "transferFrom",
      "outputs": [],
      "stateMutability": "nonpayable",
      "type": "function"
    },
    {
      "inputs": [
        {
          "internalType": "address",
          "name": "newOwner",
          "type": "address"
        }
      ],
      "name": "transferOwnership",
      "outputs": [],
      "stateMutability": "nonpayable",
      "type": "function"
    }
  ],
  "bytecode": "0x60806040523480156200001157600080fd5b506040516200272f3803806200272f833981810160405281019062000037919062000288565b806040518060400160405280600881526020017f554b20426f6e64730000000000000000000000000000000000000000000000008152506040518060400160405280600381526020017f554b4200000000000000000000000000000000000000000000000000000000008152508160009081620000b5919062000534565b508060019081620000c7919062000534565b505050600073ffffffffffffffffffffffffffffffffffffffff168173ffffffffffffffffffffffffffffffffffffffff16036200013f5760006040517f1e4fbdf70000000000000000000000000000000000000000000000000000000081526004016200013691906200062c565b60405180910390fd5b62000150816200015860201b60201c565b505062000649565b6000600660009054906101000a900473ffffffffffffffffffffffffffffffffffffffff16905081600660006101000a81548173ffffffffffffffffffffffffffffffffffffffff021916908373ffffffffffffffffffffffffffffffffffffffff1602179055508173ffffffffffffffffffffffffffffffffffffffff168173ffffffffffffffffffffffffffffffffffffffff167f8be0079c531659141344cd1fd0a4f28419497f9722a3daafe3b4186f6b6457e060405160405180910390a35050565b600080fd5b600073ffffffffffffffffffffffffffffffffffffffff82169050919050565b6000620002508262000223565b9050919050565b620002628162000243565b81146200026e57600080fd5b50565b600081519050620002828162000257565b92915050565b600060208284031215620002a157620002a06200021e565b5b6000620002b18482850162000271565b91505092915050565b600081519050919050565b7f4e487b7100000000000000000000000000000000000000000000000000000000600052604160045260246000fd5b7f4e487b7100000000000000000000000000000000000000000000000000000000600052602260045260246000fd5b600060028204905060018216806200033c57607f821691505b602082108103620003525762000351620002f4565b5b50919050565b60008190508160005260206000209050919050565b60006020601f8301049050919050565b600082821b905092915050565b600060088302620003bc7fffffffffffffffffffffffffffffffffffffffffffffffffffffffffffffffff826200037d565b620003c886836200037d565b95508019841693508086168417925050509392505050565b6000819050919050565b6000819050919050565b6000620004156200040f6200040984620003e0565b620003ea565b620003e0565b9050919050565b6000819050919050565b6200043183620003f4565b6200044962000440826200041c565b8484546200038a565b825550505050565b600090565b6200046062000451565b6200046d81848462000426565b505050565b5b8181101562000495576200048960008262000456565b60018101905062000473565b5050565b601f821115620004e457620004ae8162000358565b620004b9846200036d565b81016020851015620004c9578190505b620004e1620004d8856200036d565b83018262000472565b50505b505050565b600082821c905092915050565b60006200050960001984600802620004e9565b1980831691505092915050565b6000620005248383620004f6565b9150826002028217905092915050565b6200053f82620002ba565b67ffffffffffffffff8111156200055b576200055a620002c5565b5b62000567825462000323565b6200057482828562000499565b600060209050601f831160018114620005ac576000841562000597578287015190505b620005a3858262000516565b86555062000613565b601f198416620005bc8662000358565b60005b82811015620005e657848901518255600182019150602085019450602081019050620005bf565b8683101562000606578489015162000602601f891682620004f6565b8355505b6001600288020188555050505b505050505050565b620006268162000243565b82525050565b60006020820190506200064360008301846200061b565b92915050565b6120d680620006596000396000f3fe608060405234801561001057600080fd5b50600436106101165760003560e01c8063715018a6116100a2578063a22cb46511610071578063a22cb465146102cb578063b88d4fde146102e7578063c87b56dd14610303578063e985e9c514610333578063f2fde38b1461036357610116565b8063715018a6146102695780638da5cb5b1461027357806395d89b4114610291578063a1448194146102af57610116565b806323b872dd116100e957806323b872dd146101b557806342842e0e146101d157806342966c68146101ed5780636352211e1461020957806370a082311461023957610116565b806301ffc9a71461011b57806306fdde031461014b578063081812fc14610169578063095ea7b314610199575b600080fd5b61013560048036038101906101309190611920565b61037f565b6040516101429190611968565b60405180910390f35b610153610461565b6040516101609190611a13565b60405180910390f35b610183600480360381019061017e9190611a6b565b6104f3565b6040516101909190611ad9565b60405180910390f35b6101b360048036038101906101ae9190611b20565b61050f565b005b6101cf60048036038101906101ca9190611b60565b610525565b005b6101eb60048036038101906101e69190611b60565b610627565b005b61020760048036038101906102029190611a6b565b610647565b005b610223600480360381019061021e9190611a6b565b61065e565b6040516102309190611ad9565b60405180910390f35b610253600480360381019061024e9190611bb3565b610670565b6040516102609190611bef565b60405180910390f35b61027161072a565b005b61027b61073e565b6040516102889190611ad9565b60405180910390f35b610299610768565b6040516102a69190611a13565b60405180910390f35b6102c960048036038101906102c49190611b20565b6107fa565b005b6102e560048036038101906102e09190611c36565b610810565b005b61030160048036038101906102fc9190611dab565b610826565b005b61031d60048036038101906103189190611a6b565b610843565b60405161032a9190611a13565b60405180910390f35b61034d60048036038101906103489190611e2e565b6108ac565b60405161035a9190611968565b60405180910390f35b61037d60048036038101906103789190611bb3565b610940565b005b60007f80ac58cd000000000000000000000000000000000000000000000000000000007bffffffffffffffffffffffffffffffffffffffffffffffffffffffff1916827bffffffffffffffffffffffffffffffffffffffffffffffffffffffff1916148061044a57507f5b5e139f000000000000000000000000000000000000000000000000000000007bffffffffffffffffffffffffffffffffffffffffffffffffffffffff1916827bffffffffffffffffffffffffffffffffffffffffffffffffffffffff1916145b8061045a5750610459826109c6565b5b9050919050565b60606000805461047090611e9d565b80601f016020809104026020016040519081016040528092919081815260200182805461049c90611e9d565b80156104e95780601f106104be576101008083540402835291602001916104e9565b820191906000526020600020905b8154815290600101906020018083116104cc57829003601f168201915b5050505050905090565b60006104fe82610a30565b5061050882610ab8565b9050919050565b610521828261051c610af5565b610afd565b5050565b600073ffffffffffffffffffffffffffffffffffffffff168273ffffffffffffffffffffffffffffffffffffffff16036105975760006040517f64a0ae9200000000000000000000000000000000000000000000000000000000815260040161058e9190611ad9565b60405180910390fd5b60006105ab83836105a6610af5565b610b0f565b90508373ffffffffffffffffffffffffffffffffffffffff168173ffffffffffffffffffffffffffffffffffffffff1614610621578382826040517f64283d7b00000000000000000000000000000000000000000000000000000000815260040161061893929190611ece565b60405180910390fd5b50505050565b61064283838360405180602001604052806000815250610826565b505050565b61065a600082610655610af5565b610b0f565b5050565b600061066982610a30565b9050919050565b60008073ffffffffffffffffffffffffffffffffffffffff168273ffffffffffffffffffffffffffffffffffffffff16036106e35760006040517f89c62b640000000000000000000000000000000000000000000000000000000081526004016106da9190611ad9565b60405180910390fd5b600360008373ffffffffffffffffffffffffffffffffffffffff1673ffffffffffffffffffffffffffffffffffffffff168152602001908152602001600020549050919050565b610732610d29565b61073c6000610db0565b565b6000600660009054906101000a900473ffffffffffffffffffffffffffffffffffffffff16905090565b60606001805461077790611e9d565b80601f01602080910402602001604051908101604052809291908181526020018280546107a390611e9d565b80156107f05780601f106107c5576101008083540402835291602001916107f0565b820191906000526020600020905b8154815290600101906020018083116107d357829003601f168201915b5050505050905090565b610802610d29565b61080c8282610e76565b5050565b61082261081b610af5565b8383610e94565b5050565b610831848484610525565b61083d84848484611003565b50505050565b606061084e82610a30565b5060006108596111ba565b9050600081511161087957604051806020016040528060008152506108a4565b80610883846111f7565b604051602001610894929190611f41565b6040516020818303038152906040525b915050919050565b6000600560008473ffffffffffffffffffffffffffffffffffffffff1673ffffffffffffffffffffffffffffffffffffffff16815260200190815260200160002060008373ffffffffffffffffffffffffffffffffffffffff1673ffffffffffffffffffffffffffffffffffffffff16815260200190815260200160002060009054906101000a900460ff16905092915050565b610948610d29565b600073ffffffffffffffffffffffffffffffffffffffff168173ffffffffffffffffffffffffffffffffffffffff16036109ba5760006040517f1e4fbdf70000000000000000000000000000000000000000000000000000000081526004016109b19190611ad9565b60405180910390fd5b6109c381610db0565b50565b60007f01ffc9a7000000000000000000000000000000000000000000000000000000007bffffffffffffffffffffffffffffffffffffffffffffffffffffffff1916827bffffffffffffffffffffffffffffffffffffffffffffffffffffffff1916149050919050565b600080610a3c836112c5565b9050600073ffffffffffffffffffffffffffffffffffffffff168173ffffffffffffffffffffffffffffffffffffffff1603610aaf57826040517f7e273289000000000000000000000000000000000000000000000000000000008152600401610aa69190611bef565b60405180910390fd5b80915050919050565b60006004600083815260200190815260200160002060009054906101000a900473ffffffffffffffffffffffffffffffffffffffff169050919050565b600033905090565b610b0a8383836001611302565b505050565b600080610b1b846112c5565b9050600073ffffffffffffffffffffffffffffffffffffffff168373ffffffffffffffffffffffffffffffffffffffff1614610b5d57610b5c8184866114c7565b5b600073ffffffffffffffffffffffffffffffffffffffff168173ffffffffffffffffffffffffffffffffffffffff1614610bee57610b9f600085600080611302565b6001600360008373ffffffffffffffffffffffffffffffffffffffff1673ffffffffffffffffffffffffffffffffffffffff168152602001908152602001600020600082825403925050819055505b600073ffffffffffffffffffffffffffffffffffffffff168573ffffffffffffffffffffffffffffffffffffffff1614610c71576001600360008773ffffffffffffffffffffffffffffffffffffffff1673ffffffffffffffffffffffffffffffffffffffff168152602001908152602001600020600082825401925050819055505b846002600086815260200190815260200160002060006101000a81548173ffffffffffffffffffffffffffffffffffffffff021916908373ffffffffffffffffffffffffffffffffffffffff160217905550838573ffffffffffffffffffffffffffffffffffffffff168273ffffffffffffffffffffffffffffffffffffffff167fddf252ad1be2c89b69c2b068fc378daa952ba7f163c4a11628f55a4df523b3ef60405160405180910390a4809150509392505050565b610d31610af5565b73ffffffffffffffffffffffffffffffffffffffff16610d4f61073e565b73ffffffffffffffffffffffffffffffffffffffff1614610dae57610d72610af5565b6040517f118cdaa7000000000000000000000000000000000000000000000000000000008152600401610da59190611ad9565b60405180910390fd5b565b6000600660009054906101000a900473ffffffffffffffffffffffffffffffffffffffff16905081600660006101000a81548173ffffffffffffffffffffffffffffffffffffffff021916908373ffffffffffffffffffffffffffffffffffffffff1602179055508173ffffffffffffffffffffffffffffffffffffffff168173ffffffffffffffffffffffffffffffffffffffff167f8be0079c531659141344cd1fd0a4f28419497f9722a3daafe3b4186f6b6457e060405160405180910390a35050565b610e9082826040518060200160405280600081525061158b565b5050565b600073ffffffffffffffffffffffffffffffffffffffff168273ffffffffffffffffffffffffffffffffffffffff1603610f0557816040517f5b08ba18000000000000000000000000000000000000000000000000000000008152600401610efc9190611ad9565b60405180910390fd5b80600560008573ffffffffffffffffffffffffffffffffffffffff1673ffffffffffffffffffffffffffffffffffffffff16815260200190815260200160002060008473ffffffffffffffffffffffffffffffffffffffff1673ffffffffffffffffffffffffffffffffffffffff16815260200190815260200160002060006101000a81548160ff0219169083151502179055508173ffffffffffffffffffffffffffffffffffffffff168373ffffffffffffffffffffffffffffffffffffffff167f17307eab39ab6107e8899845ad3d59bd9653f200f220920489ca2b5937696c3183604051610ff69190611968565b60405180910390a3505050565b60008373ffffffffffffffffffffffffffffffffffffffff163b11156111b4578273ffffffffffffffffffffffffffffffffffffffff1663150b7a02611047610af5565b8685856040518563ffffffff1660e01b81526004016110699493929190611fba565b6020604051808303816000875af19250505080156110a557506040513d601f19601f820116820180604052508101906110a2919061201b565b60015b611129573d80600081146110d5576040519150601f19603f3d011682016040523d82523d6000602084013e6110da565b606091505b50600081510361112157836040517f64a0ae920000000000000000000000000000000000000000000000000000000081526004016111189190611ad9565b60405180910390fd5b805181602001fd5b63150b7a0260e01b7bffffffffffffffffffffffffffffffffffffffffffffffffffffffff1916817bffffffffffffffffffffffffffffffffffffffffffffffffffffffff1916146111b257836040517f64a0ae920000000000000000000000000000000000000000000000000000000081526004016111a99190611ad9565b60405180910390fd5b505b50505050565b60606040518060400160405280601a81526020017f687474703a2f2f6c6f63616c686f73743a333030312f6e66742f000000000000815250905090565b606060006001611206846115a7565b01905060008167ffffffffffffffff81111561122557611224611c80565b5b6040519080825280601f01601f1916602001820160405280156112575781602001600182028036833780820191505090505b509050600082602001820190505b6001156112ba578080600190039150507f3031323334353637383961626364656600000000000000000000000000000000600a86061a8153600a85816112ae576112ad612048565b5b04945060008503611265575b819350505050919050565b60006002600083815260200190815260200160002060009054906101000a900473ffffffffffffffffffffffffffffffffffffffff169050919050565b808061133b5750600073ffffffffffffffffffffffffffffffffffffffff168273ffffffffffffffffffffffffffffffffffffffff1614155b1561146f57600061134b84610a30565b9050600073ffffffffffffffffffffffffffffffffffffffff168373ffffffffffffffffffffffffffffffffffffffff16141580156113b657508273ffffffffffffffffffffffffffffffffffffffff168173ffffffffffffffffffffffffffffffffffffffff1614155b80156113c957506113c781846108ac565b155b1561140b57826040517fa9fbf51f0000000000000000000000000000000000000000000000000000000081526004016114029190611ad9565b60405180910390fd5b811561146d57838573ffffffffffffffffffffffffffffffffffffffff168273ffffffffffffffffffffffffffffffffffffffff167f8c5be1e5ebec7d5bd14f71427d1e84f3dd0314c0f7b2291e5b200ac8c7c3b92560405160405180910390a45b505b836004600085815260200190815260200160002060006101000a81548173ffffffffffffffffffffffffffffffffffffffff021916908373ffffffffffffffffffffffffffffffffffffffff16021790555050505050565b6114d28383836116fa565b61158657600073ffffffffffffffffffffffffffffffffffffffff168373ffffffffffffffffffffffffffffffffffffffff160361154757806040517f7e27328900000000000000000000000000000000000000000000000000000000815260040161153e9190611bef565b60405180910390fd5b81816040517f177e802f00000000000000000000000000000000000000000000000000000000815260040161157d929190612077565b60405180910390fd5b505050565b61159583836117bb565b6115a26000848484611003565b505050565b600080600090507a184f03e93ff9f4daa797ed6e38ed64bf6a1f0100000000000000008310611605577a184f03e93ff9f4daa797ed6e38ed64bf6a1f01000000000000000083816115fb576115fa612048565b5b0492506040810190505b6d04ee2d6d415b85acef81000000008310611642576d04ee2d6d415b85acef8100000000838161163857611637612048565b5b0492506020810190505b662386f26fc10000831061167157662386f26fc10000838161166757611666612048565b5b0492506010810190505b6305f5e100831061169a576305f5e10083816116905761168f612048565b5b0492506008810190505b61271083106116bf5761271083816116b5576116b4612048565b5b0492506004810190505b606483106116e257606483816116d8576116d7612048565b5b0492506002810190505b600a83106116f1576001810190505b80915050919050565b60008073ffffffffffffffffffffffffffffffffffffffff168373ffffffffffffffffffffffffffffffffffffffff16141580156117b257508273ffffffffffffffffffffffffffffffffffffffff168473ffffffffffffffffffffffffffffffffffffffff161480611773575061177284846108ac565b5b806117b157508273ffffffffffffffffffffffffffffffffffffffff1661179983610ab8565b73ffffffffffffffffffffffffffffffffffffffff16145b5b90509392505050565b600073ffffffffffffffffffffffffffffffffffffffff168273ffffffffffffffffffffffffffffffffffffffff160361182d5760006040517f64a0ae920000000000000000000000000000000000000000000000000000000081526004016118249190611ad9565b60405180910390fd5b600061183b83836000610b0f565b9050600073ffffffffffffffffffffffffffffffffffffffff168173ffffffffffffffffffffffffffffffffffffffff16146118af5760006040517f73c6ac6e0000000000000000000000000000000000000000000000000000000081526004016118a69190611ad9565b60405180910390fd5b505050565b6000604051905090565b600080fd5b600080fd5b60007fffffffff0000000000000000000000000000000000000000000000000000000082169050919050565b6118fd816118c8565b811461190857600080fd5b50565b60008135905061191a816118f4565b92915050565b600060208284031215611936576119356118be565b5b60006119448482850161190b565b91505092915050565b60008115159050919050565b6119628161194d565b82525050565b600060208201905061197d6000830184611959565b92915050565b600081519050919050565b600082825260208201905092915050565b60005b838110156119bd5780820151818401526020810190506119a2565b60008484015250505050565b6000601f19601f8301169050919050565b60006119e582611983565b6119ef818561198e565b93506119ff81856020860161199f565b611a08816119c9565b840191505092915050565b60006020820190508181036000830152611a2d81846119da565b905092915050565b6000819050919050565b611a4881611a35565b8114611a5357600080fd5b50565b600081359050611a6581611a3f565b92915050565b600060208284031215611a8157611a806118be565b5b6000611a8f84828501611a56565b91505092915050565b600073ffffffffffffffffffffffffffffffffffffffff82169050919050565b6000611ac382611a98565b9050919050565b611ad381611ab8565b82525050565b6000602082019050611aee6000830184611aca565b92915050565b611afd81611ab8565b8114611b0857600080fd5b50565b600081359050611b1a81611af4565b92915050565b60008060408385031215611b3757611b366118be565b5b6000611b4585828601611b0b565b9250506020611b5685828601611a56565b9150509250929050565b600080600060608486031215611b7957611b786118be565b5b6000611b8786828701611b0b565b9350506020611b9886828701611b0b565b9250506040611ba986828701611a56565b9150509250925092565b600060208284031215611bc957611bc86118be565b5b6000611bd784828501611b0b565b91505092915050565b611be981611a35565b82525050565b6000602082019050611c046000830184611be0565b92915050565b611c138161194d565b8114611c1e57600080fd5b50565b600081359050611c3081611c0a565b92915050565b60008060408385031215611c4d57611c4c6118be565b5b6000611c5b85828601611b0b565b9250506020611c6c85828601611c21565b9150509250929050565b600080fd5b600080fd5b7f4e487b7100000000000000000000000000000000000000000000000000000000600052604160045260246000fd5b611cb8826119c9565b810181811067ffffffffffffffff82111715611cd757611cd6611c80565b5b80604052505050565b6000611cea6118b4565b9050611cf68282611caf565b919050565b600067ffffffffffffffff821115611d1657611d15611c80565b5b611d1f826119c9565b9050602081019050919050565b82818337600083830152505050565b6000611d4e611d4984611cfb565b611ce0565b905082815260208101848484011115611d6a57611d69611c7b565b5b611d75848285611d2c565b509392505050565b600082601f830112611d9257611d91611c76565b5b8135611da2848260208601611d3b565b91505092915050565b60008060008060808587031215611dc557611dc46118be565b5b6000611dd387828801611b0b565b9450506020611de487828801611b0b565b9350506040611df587828801611a56565b925050606085013567ffffffffffffffff811115611e1657611e156118c3565b5b611e2287828801611d7d565b91505092959194509250565b60008060408385031215611e4557611e446118be565b5b6000611e5385828601611b0b565b9250506020611e6485828601611b0b565b9150509250929050565b7f4e487b7100000000000000000000000000000000000000000000000000000000600052602260045260246000fd5b60006002820490506001821680611eb557607f821691505b602082108103611ec857611ec7611e6e565b5b50919050565b6000606082019050611ee36000830186611aca565b611ef06020830185611be0565b611efd6040830184611aca565b949350505050565b600081905092915050565b6000611f1b82611983565b611f258185611f05565b9350611f3581856020860161199f565b80840191505092915050565b6000611f4d8285611f10565b9150611f598284611f10565b91508190509392505050565b600081519050919050565b600082825260208201905092915050565b6000611f8c82611f65565b611f968185611f70565b9350611fa681856020860161199f565b611faf816119c9565b840191505092915050565b6000608082019050611fcf6000830187611aca565b611fdc6020830186611aca565b611fe96040830185611be0565b8181036060830152611ffb8184611f81565b905095945050505050565b600081519050612015816118f4565b92915050565b600060208284031215612031576120306118be565b5b600061203f84828501612006565b91505092915050565b7f4e487b7100000000000000000000000000000000000000000000000000000000600052601260045260246000fd5b600060408201905061208c6000830185611aca565b6120996020830184611be0565b939250505056fea2646970667358221220ff57360ddaf4a278300e2b5c35b2d731f8417770d8dd80548ad7c208d891a35c64736f6c63430008180033",
  "linkReferences": {},
  "deployedLinkReferences": {}
}